{
  "_format": "hh3-artifact-1",
  "contractName": "PeraSoulManager",
  "sourceName": "contracts/PeraSoulManager.sol",
  "abi": [
    {
      "inputs": [
        {
          "internalType": "address",
          "name": "peraSoulAddress",
          "type": "address"
        }
      ],
      "stateMutability": "nonpayable",
      "type": "constructor"
    },
    {
      "inputs": [
        {
          "internalType": "address",
          "name": "owner",
          "type": "address"
        }
      ],
      "name": "OwnableInvalidOwner",
      "type": "error"
    },
    {
      "inputs": [
        {
          "internalType": "address",
          "name": "account",
          "type": "address"
        }
      ],
      "name": "OwnableUnauthorizedAccount",
      "type": "error"
    },
    {
      "anonymous": false,
      "inputs": [
        {
          "indexed": true,
          "internalType": "address",
          "name": "previousOwner",
          "type": "address"
        },
        {
          "indexed": true,
          "internalType": "address",
          "name": "newOwner",
          "type": "address"
        }
      ],
      "name": "OwnershipTransferred",
      "type": "event"
    },
    {
      "anonymous": false,
      "inputs": [
        {
          "indexed": true,
          "internalType": "address",
          "name": "student",
          "type": "address"
        },
        {
          "indexed": true,
          "internalType": "uint256",
          "name": "tokenId",
          "type": "uint256"
        }
      ],
      "name": "StudentTokenMinted",
      "type": "event"
    },
    {
      "anonymous": false,
      "inputs": [
        {
          "indexed": true,
          "internalType": "address",
          "name": "oldWallet",
          "type": "address"
        },
        {
          "indexed": true,
          "internalType": "address",
          "name": "newWallet",
          "type": "address"
        },
        {
          "indexed": false,
          "internalType": "uint256",
          "name": "oldTokenId",
          "type": "uint256"
        },
        {
          "indexed": false,
          "internalType": "uint256",
          "name": "newTokenId",
          "type": "uint256"
        }
      ],
      "name": "StudentWalletReplaced",
      "type": "event"
    },
    {
      "anonymous": false,
      "inputs": [
        {
          "indexed": true,
          "internalType": "uint256",
          "name": "tokenId",
          "type": "uint256"
        }
      ],
      "name": "TokenPermanentlyRevoked",
      "type": "event"
    },
    {
      "anonymous": false,
      "inputs": [
        {
          "indexed": true,
          "internalType": "uint256",
          "name": "tokenId",
          "type": "uint256"
        },
        {
          "indexed": false,
          "internalType": "uint256",
          "name": "untilTime",
          "type": "uint256"
        }
      ],
      "name": "TokenTemporarilyRevoked",
      "type": "event"
    },
    {
      "inputs": [
        {
          "internalType": "address",
          "name": "student",
          "type": "address"
        }
      ],
      "name": "getRemainingRevocationTime",
      "outputs": [
        {
          "internalType": "uint256",
          "name": "",
          "type": "uint256"
        }
      ],
      "stateMutability": "view",
      "type": "function"
    },
    {
      "inputs": [
        {
          "internalType": "address",
          "name": "student",
          "type": "address"
        }
      ],
      "name": "mintStudentToken",
      "outputs": [
        {
          "internalType": "uint256",
          "name": "",
          "type": "uint256"
        }
      ],
      "stateMutability": "nonpayable",
      "type": "function"
    },
    {
      "inputs": [],
      "name": "owner",
      "outputs": [
        {
          "internalType": "address",
          "name": "",
          "type": "address"
        }
      ],
      "stateMutability": "view",
      "type": "function"
    },
    {
      "inputs": [],
      "name": "peraSoul",
      "outputs": [
        {
          "internalType": "contract IPeraSoul",
          "name": "",
          "type": "address"
        }
      ],
      "stateMutability": "view",
      "type": "function"
    },
    {
      "inputs": [
        {
          "internalType": "uint256",
          "name": "",
          "type": "uint256"
        }
      ],
      "name": "permanentlyRevoked",
      "outputs": [
        {
          "internalType": "bool",
          "name": "",
          "type": "bool"
        }
      ],
      "stateMutability": "view",
      "type": "function"
    },
    {
      "inputs": [],
      "name": "renounceOwnership",
      "outputs": [],
      "stateMutability": "nonpayable",
      "type": "function"
    },
    {
      "inputs": [
        {
          "internalType": "address",
          "name": "oldWallet",
          "type": "address"
        },
        {
          "internalType": "address",
          "name": "newWallet",
          "type": "address"
        }
      ],
      "name": "replaceStudentWallet",
      "outputs": [
        {
          "internalType": "uint256",
          "name": "",
          "type": "uint256"
        }
      ],
      "stateMutability": "nonpayable",
      "type": "function"
    },
    {
      "inputs": [
        {
          "internalType": "address",
          "name": "student",
          "type": "address"
        }
      ],
      "name": "revokePermanently",
      "outputs": [],
      "stateMutability": "nonpayable",
      "type": "function"
    },
    {
      "inputs": [
        {
          "internalType": "address",
          "name": "student",
          "type": "address"
        },
        {
          "internalType": "uint256",
          "name": "durationInSeconds",
          "type": "uint256"
        }
      ],
      "name": "revokeTemporarily",
      "outputs": [],
      "stateMutability": "nonpayable",
      "type": "function"
    },
    {
      "inputs": [
        {
          "internalType": "uint256",
          "name": "",
          "type": "uint256"
        }
      ],
      "name": "temporarilyRevokedUntil",
      "outputs": [
        {
          "internalType": "uint256",
          "name": "",
          "type": "uint256"
        }
      ],
      "stateMutability": "view",
      "type": "function"
    },
    {
      "inputs": [
        {
          "internalType": "address",
          "name": "newOwner",
          "type": "address"
        }
      ],
      "name": "transferOwnership",
      "outputs": [],
      "stateMutability": "nonpayable",
      "type": "function"
    },
    {
      "inputs": [
        {
          "internalType": "address",
          "name": "student",
          "type": "address"
        }
      ],
      "name": "verifyStudent",
      "outputs": [
        {
          "internalType": "bool",
          "name": "",
          "type": "bool"
        }
      ],
      "stateMutability": "view",
      "type": "function"
    }
  ],
  "bytecode": "0x608060405234801561000f575f5ffd5b50604051611d47380380611d4783398181016040528101906100319190610285565b335f73ffffffffffffffffffffffffffffffffffffffff168173ffffffffffffffffffffffffffffffffffffffff16036100a2575f6040517f1e4fbdf700000000000000000000000000000000000000000000000000000000815260040161009991906102bf565b60405180910390fd5b6100b18161016660201b60201c565b505f73ffffffffffffffffffffffffffffffffffffffff168173ffffffffffffffffffffffffffffffffffffffff1603610120576040517f08c379a000000000000000000000000000000000000000000000000000000000815260040161011790610332565b60405180910390fd5b8060015f6101000a81548173ffffffffffffffffffffffffffffffffffffffff021916908373ffffffffffffffffffffffffffffffffffffffff16021790555050610350565b5f5f5f9054906101000a900473ffffffffffffffffffffffffffffffffffffffff169050815f5f6101000a81548173ffffffffffffffffffffffffffffffffffffffff021916908373ffffffffffffffffffffffffffffffffffffffff1602179055508173ffffffffffffffffffffffffffffffffffffffff168173ffffffffffffffffffffffffffffffffffffffff167f8be0079c531659141344cd1fd0a4f28419497f9722a3daafe3b4186f6b6457e060405160405180910390a35050565b5f5ffd5b5f73ffffffffffffffffffffffffffffffffffffffff82169050919050565b5f6102548261022b565b9050919050565b6102648161024a565b811461026e575f5ffd5b50565b5f8151905061027f8161025b565b92915050565b5f6020828403121561029a57610299610227565b5b5f6102a784828501610271565b91505092915050565b6102b98161024a565b82525050565b5f6020820190506102d25f8301846102b0565b92915050565b5f82825260208201905092915050565b7f496e76616c69642050657261536f756c206164647265737300000000000000005f82015250565b5f61031c6018836102d8565b9150610327826102e8565b602082019050919050565b5f6020820190508181035f83015261034981610310565b9050919050565b6119ea8061035d5f395ff3fe608060405234801561000f575f5ffd5b50600436106100b2575f3560e01c80638fc6afcc1161006f5780638fc6afcc1461018c578063a008de08146101bc578063c9b5901d146101ec578063e540d6d41461021c578063f2fde38b14610238578063fa9aeb0c14610254576100b2565b806319dc4ae6146100b65780632002e424146100e65780632994fa611461010457806339ecaba114610134578063715018a6146101645780638da5cb5b1461016e575b5f5ffd5b6100d060048036038101906100cb919061135b565b610270565b6040516100dd91906113a0565b60405180910390f35b6100ee61028d565b6040516100fb9190611433565b60405180910390f35b61011e6004803603810190610119919061135b565b6102b2565b60405161012b919061145b565b60405180910390f35b61014e600480360381019061014991906114af565b6102c7565b60405161015b919061145b565b60405180910390f35b61016c610478565b005b61017661048b565b60405161018391906114e9565b60405180910390f35b6101a660048036038101906101a191906114af565b6104b2565b6040516101b3919061145b565b60405180910390f35b6101d660048036038101906101d19190611502565b6105a5565b6040516101e3919061145b565b60405180910390f35b610206600480360381019061020191906114af565b610b18565b60405161021391906113a0565b60405180910390f35b610236600480360381019061023191906114af565b610cb3565b005b610252600480360381019061024d91906114af565b610f24565b005b61026e60048036038101906102699190611540565b610fa8565b005b6002602052805f5260405f205f915054906101000a900460ff1681565b60015f9054906101000a900473ffffffffffffffffffffffffffffffffffffffff1681565b6003602052805f5260405f205f915090505481565b5f60015f9054906101000a900473ffffffffffffffffffffffffffffffffffffffff1673ffffffffffffffffffffffffffffffffffffffff16639bb0f599836040518263ffffffff1660e01b815260040161032291906114e9565b602060405180830381865afa15801561033d573d5f5f3e3d5ffd5b505050506040513d601f19601f8201168201806040525081019061036191906115a8565b6103a0576040517f08c379a00000000000000000000000000000000000000000000000000000000081526004016103979061162d565b60405180910390fd5b5f60015f9054906101000a900473ffffffffffffffffffffffffffffffffffffffff1673ffffffffffffffffffffffffffffffffffffffff16639493955c846040518263ffffffff1660e01b81526004016103fb91906114e9565b602060405180830381865afa158015610416573d5f5f3e3d5ffd5b505050506040513d601f19601f8201168201806040525081019061043a919061165f565b90505f60035f8381526020019081526020015f20549050804210610462575f92505050610473565b428161046e91906116b7565b925050505b919050565b6104806111d5565b6104895f61125c565b565b5f5f5f9054906101000a900473ffffffffffffffffffffffffffffffffffffffff16905090565b5f6104bb6111d5565b5f60015f9054906101000a900473ffffffffffffffffffffffffffffffffffffffff1673ffffffffffffffffffffffffffffffffffffffff16636a627842846040518263ffffffff1660e01b815260040161051691906114e9565b6020604051808303815f875af1158015610532573d5f5f3e3d5ffd5b505050506040513d601f19601f82011682018060405250810190610556919061165f565b9050808373ffffffffffffffffffffffffffffffffffffffff167fff09bbc694e31f51fef9056ef02dde7a63e477c1c0f40f6e0cb87b7eed6e442960405160405180910390a380915050919050565b5f6105ae6111d5565b5f73ffffffffffffffffffffffffffffffffffffffff168373ffffffffffffffffffffffffffffffffffffffff160361061c576040517f08c379a000000000000000000000000000000000000000000000000000000000815260040161061390611734565b60405180910390fd5b5f73ffffffffffffffffffffffffffffffffffffffff168273ffffffffffffffffffffffffffffffffffffffff160361068a576040517f08c379a00000000000000000000000000000000000000000000000000000000081526004016106819061179c565b60405180910390fd5b8173ffffffffffffffffffffffffffffffffffffffff168373ffffffffffffffffffffffffffffffffffffffff16036106f8576040517f08c379a00000000000000000000000000000000000000000000000000000000081526004016106ef90611804565b60405180910390fd5b60015f9054906101000a900473ffffffffffffffffffffffffffffffffffffffff1673ffffffffffffffffffffffffffffffffffffffff16639bb0f599846040518263ffffffff1660e01b815260040161075291906114e9565b602060405180830381865afa15801561076d573d5f5f3e3d5ffd5b505050506040513d601f19601f8201168201806040525081019061079191906115a8565b6107d0576040517f08c379a00000000000000000000000000000000000000000000000000000000081526004016107c79061186c565b60405180910390fd5b60015f9054906101000a900473ffffffffffffffffffffffffffffffffffffffff1673ffffffffffffffffffffffffffffffffffffffff16639bb0f599836040518263ffffffff1660e01b815260040161082a91906114e9565b602060405180830381865afa158015610845573d5f5f3e3d5ffd5b505050506040513d601f19601f8201168201806040525081019061086991906115a8565b156108a9576040517f08c379a00000000000000000000000000000000000000000000000000000000081526004016108a0906118d4565b60405180910390fd5b5f60015f9054906101000a900473ffffffffffffffffffffffffffffffffffffffff1673ffffffffffffffffffffffffffffffffffffffff16639493955c856040518263ffffffff1660e01b815260040161090491906114e9565b602060405180830381865afa15801561091f573d5f5f3e3d5ffd5b505050506040513d601f19601f82011682018060405250810190610943919061165f565b9050600160025f8381526020019081526020015f205f6101000a81548160ff02191690831515021790555060035f8281526020019081526020015f205f905560015f9054906101000a900473ffffffffffffffffffffffffffffffffffffffff1673ffffffffffffffffffffffffffffffffffffffff166389afcb44856040518263ffffffff1660e01b81526004016109dc91906114e9565b5f604051808303815f87803b1580156109f3575f5ffd5b505af1158015610a05573d5f5f3e3d5ffd5b505050505f60015f9054906101000a900473ffffffffffffffffffffffffffffffffffffffff1673ffffffffffffffffffffffffffffffffffffffff16636a627842856040518263ffffffff1660e01b8152600401610a6491906114e9565b6020604051808303815f875af1158015610a80573d5f5f3e3d5ffd5b505050506040513d601f19601f82011682018060405250810190610aa4919061165f565b90508373ffffffffffffffffffffffffffffffffffffffff168573ffffffffffffffffffffffffffffffffffffffff167f5a39837c3dec593d2c5f28f3fdd2b68141792d23f8653f2b2adbf84da417ac3f8484604051610b059291906118f2565b60405180910390a3809250505092915050565b5f60015f9054906101000a900473ffffffffffffffffffffffffffffffffffffffff1673ffffffffffffffffffffffffffffffffffffffff16639bb0f599836040518263ffffffff1660e01b8152600401610b7391906114e9565b602060405180830381865afa158015610b8e573d5f5f3e3d5ffd5b505050506040513d601f19601f82011682018060405250810190610bb291906115a8565b610bbe575f9050610cae565b5f60015f9054906101000a900473ffffffffffffffffffffffffffffffffffffffff1673ffffffffffffffffffffffffffffffffffffffff16639493955c846040518263ffffffff1660e01b8152600401610c1991906114e9565b602060405180830381865afa158015610c34573d5f5f3e3d5ffd5b505050506040513d601f19601f82011682018060405250810190610c58919061165f565b905060025f8281526020019081526020015f205f9054906101000a900460ff1615610c86575f915050610cae565b60035f8281526020019081526020015f2054421015610ca8575f915050610cae565b60019150505b919050565b610cbb6111d5565b60015f9054906101000a900473ffffffffffffffffffffffffffffffffffffffff1673ffffffffffffffffffffffffffffffffffffffff16639bb0f599826040518263ffffffff1660e01b8152600401610d1591906114e9565b602060405180830381865afa158015610d30573d5f5f3e3d5ffd5b505050506040513d601f19601f82011682018060405250810190610d5491906115a8565b610d93576040517f08c379a0000000000000000000000000000000000000000000000000000000008152600401610d8a9061162d565b60405180910390fd5b5f60015f9054906101000a900473ffffffffffffffffffffffffffffffffffffffff1673ffffffffffffffffffffffffffffffffffffffff16639493955c836040518263ffffffff1660e01b8152600401610dee91906114e9565b602060405180830381865afa158015610e09573d5f5f3e3d5ffd5b505050506040513d601f19601f82011682018060405250810190610e2d919061165f565b9050600160025f8381526020019081526020015f205f6101000a81548160ff02191690831515021790555060035f8281526020019081526020015f205f905560015f9054906101000a900473ffffffffffffffffffffffffffffffffffffffff1673ffffffffffffffffffffffffffffffffffffffff166389afcb44836040518263ffffffff1660e01b8152600401610ec691906114e9565b5f604051808303815f87803b158015610edd575f5ffd5b505af1158015610eef573d5f5f3e3d5ffd5b50505050807f979f8b9f4e2bd848a8992fe798bf1e880ec53c3ab258c54a83d16c5a3e947e1060405160405180910390a25050565b610f2c6111d5565b5f73ffffffffffffffffffffffffffffffffffffffff168173ffffffffffffffffffffffffffffffffffffffff1603610f9c575f6040517f1e4fbdf7000000000000000000000000000000000000000000000000000000008152600401610f9391906114e9565b60405180910390fd5b610fa58161125c565b50565b610fb06111d5565b60015f9054906101000a900473ffffffffffffffffffffffffffffffffffffffff1673ffffffffffffffffffffffffffffffffffffffff16639bb0f599836040518263ffffffff1660e01b815260040161100a91906114e9565b602060405180830381865afa158015611025573d5f5f3e3d5ffd5b505050506040513d601f19601f8201168201806040525081019061104991906115a8565b611088576040517f08c379a000000000000000000000000000000000000000000000000000000000815260040161107f9061162d565b60405180910390fd5b5f81116110ca576040517f08c379a00000000000000000000000000000000000000000000000000000000081526004016110c190611963565b60405180910390fd5b5f60015f9054906101000a900473ffffffffffffffffffffffffffffffffffffffff1673ffffffffffffffffffffffffffffffffffffffff16639493955c846040518263ffffffff1660e01b815260040161112591906114e9565b602060405180830381865afa158015611140573d5f5f3e3d5ffd5b505050506040513d601f19601f82011682018060405250810190611164919061165f565b905081426111729190611981565b60035f8381526020019081526020015f2081905550807f069cef2b137e2c98c9ef6a2d28b33874d4117f91282332583bb2258b9ab0a04e60035f8481526020019081526020015f20546040516111c8919061145b565b60405180910390a2505050565b6111dd61131d565b73ffffffffffffffffffffffffffffffffffffffff166111fb61048b565b73ffffffffffffffffffffffffffffffffffffffff161461125a5761121e61131d565b6040517f118cdaa700000000000000000000000000000000000000000000000000000000815260040161125191906114e9565b60405180910390fd5b565b5f5f5f9054906101000a900473ffffffffffffffffffffffffffffffffffffffff169050815f5f6101000a81548173ffffffffffffffffffffffffffffffffffffffff021916908373ffffffffffffffffffffffffffffffffffffffff1602179055508173ffffffffffffffffffffffffffffffffffffffff168173ffffffffffffffffffffffffffffffffffffffff167f8be0079c531659141344cd1fd0a4f28419497f9722a3daafe3b4186f6b6457e060405160405180910390a35050565b5f33905090565b5f5ffd5b5f819050919050565b61133a81611328565b8114611344575f5ffd5b50565b5f8135905061135581611331565b92915050565b5f602082840312156113705761136f611324565b5b5f61137d84828501611347565b91505092915050565b5f8115159050919050565b61139a81611386565b82525050565b5f6020820190506113b35f830184611391565b92915050565b5f73ffffffffffffffffffffffffffffffffffffffff82169050919050565b5f819050919050565b5f6113fb6113f66113f1846113b9565b6113d8565b6113b9565b9050919050565b5f61140c826113e1565b9050919050565b5f61141d82611402565b9050919050565b61142d81611413565b82525050565b5f6020820190506114465f830184611424565b92915050565b61145581611328565b82525050565b5f60208201905061146e5f83018461144c565b92915050565b5f61147e826113b9565b9050919050565b61148e81611474565b8114611498575f5ffd5b50565b5f813590506114a981611485565b92915050565b5f602082840312156114c4576114c3611324565b5b5f6114d18482850161149b565b91505092915050565b6114e381611474565b82525050565b5f6020820190506114fc5f8301846114da565b92915050565b5f5f6040838503121561151857611517611324565b5b5f6115258582860161149b565b92505060206115368582860161149b565b9150509250929050565b5f5f6040838503121561155657611555611324565b5b5f6115638582860161149b565b925050602061157485828601611347565b9150509250929050565b61158781611386565b8114611591575f5ffd5b50565b5f815190506115a28161157e565b92915050565b5f602082840312156115bd576115bc611324565b5b5f6115ca84828501611594565b91505092915050565b5f82825260208201905092915050565b7f53747564656e7420686173206e6f20746f6b656e0000000000000000000000005f82015250565b5f6116176014836115d3565b9150611622826115e3565b602082019050919050565b5f6020820190508181035f8301526116448161160b565b9050919050565b5f8151905061165981611331565b92915050565b5f6020828403121561167457611673611324565b5b5f6116818482850161164b565b91505092915050565b7f4e487b71000000000000000000000000000000000000000000000000000000005f52601160045260245ffd5b5f6116c182611328565b91506116cc83611328565b92508282039050818111156116e4576116e361168a565b5b92915050565b7f496e76616c6964206f6c642077616c6c657400000000000000000000000000005f82015250565b5f61171e6012836115d3565b9150611729826116ea565b602082019050919050565b5f6020820190508181035f83015261174b81611712565b9050919050565b7f496e76616c6964206e65772077616c6c657400000000000000000000000000005f82015250565b5f6117866012836115d3565b915061179182611752565b602082019050919050565b5f6020820190508181035f8301526117b38161177a565b9050919050565b7f57616c6c657473206d75737420626520646966666572656e74000000000000005f82015250565b5f6117ee6019836115d3565b91506117f9826117ba565b602082019050919050565b5f6020820190508181035f83015261181b816117e2565b9050919050565b7f4f6c642077616c6c657420686173206e6f20746f6b656e0000000000000000005f82015250565b5f6118566017836115d3565b915061186182611822565b602082019050919050565b5f6020820190508181035f8301526118838161184a565b9050919050565b7f4e65772077616c6c657420616c72656164792068617320746f6b656e000000005f82015250565b5f6118be601c836115d3565b91506118c98261188a565b602082019050919050565b5f6020820190508181035f8301526118eb816118b2565b9050919050565b5f6040820190506119055f83018561144c565b611912602083018461144c565b9392505050565b7f496e76616c6964206475726174696f6e000000000000000000000000000000005f82015250565b5f61194d6010836115d3565b915061195882611919565b602082019050919050565b5f6020820190508181035f83015261197a81611941565b9050919050565b5f61198b82611328565b915061199683611328565b92508282019050808211156119ae576119ad61168a565b5b9291505056fea26469706673582212208693505a76fb94721bd2f2ab58a6d34483abda2d14bd00c7c58499ae9926a4f364736f6c634300081c0033",
  "linkReferences": {},
  "deployedLinkReferences": {},
  "immutableReferences": {},
  "inputSourceName": "project/contracts/PeraSoulManager.sol",
  "buildInfoId": "solc-0_8_28-e07a549bfab6d313e84cc23dabf97802506d9e9e"
}